:100000000C945D000C947A000C947A000C947A00A5
:100010000C947A000C947A000C947A000C947A0078
:100020000C947A000C947A000C947A000C947A0068
:100030000C947A000C947A000C947A000C947A0058
:100040000C94E5010C947A000C947A000C947A00DC
:100050000C947A000C947A000C947A000C947A0038
:100060000C947A000C947A00000000080002010051
:100070000003040700000000000000000000000072
:10008000250028002B0000000000240027002A0083
:10009000040404040404040402020202020203032E
:1000A0000303030301020408102040800102040836
:1000B0001020010204081020DE0211241FBECFEF21
:1000C000D8E0DEBFCDBF21E0A0E0B1E001C01D92CD
:1000D000A131B207E1F710E0CDE5D0E004C02197EF
:1000E000FE010E94FC02CC35D107C9F70E942F0205
:1000F0000C9402030C94000090E0FC01EC55FF4FBF
:10010000249180579F4FFC018491882399F090E0BF
:10011000880F991FFC01EA57FF4FA591B491FC018C
:10012000E458FF4F859194918FB7F894EC91E22BAE
:10013000EC938FBF089590E0FC01E859FF4F2491A4
:10014000FC01EC55FF4F3491FC01E057FF4FE49167
:10015000EE23C9F0222339F0233001F1A8F4213035
:1001600019F1223029F1F0E0EE0FFF1FE458FF4FA4
:10017000A591B4918FB7F894EC91611126C0309598
:100180003E233C938FBF08952730A9F02830C9F053
:10019000243049F7809180008F7D03C080918000DA
:1001A0008F7780938000DFCF84B58F7784BDDBCFDE
:1001B00084B58F7DFBCF8091B0008F778093B000A6
:1001C000D2CF8091B0008F7DF9CF3E2BDACF8091D6
:1001D0000F01909110018130910569F0A8F002970C
:1001E00091F160E0809109010E949B0060E08091A4
:1001F0000A010E949B0060E080910B010E949B001D
:1002000060E080910C0108C060E0809109010E94CB
:100210009B0060E080910A010E949B0080910D018B
:1002200090910E018230910538F0880F991F880F48
:10023000991F05970197F1F783E090E090931001E3
:1002400080930F01089560E0809109010E949B0056
:1002500060E080910B010E949B00C3CF1F93CF935E
:10026000DF93182FEB010E947C00209739F460E0A7
:10027000812FDF91CF911F910C949B00CF3FD1052F
:1002800011F461E0F5CFE12FF0E0E859FF4FE49180
:10029000E33031F140F4E130B1F0E230E1F0C03868
:1002A000D1057CF7E4CFE73029F1E83059F1E430AB
:1002B000B1F780918000806280938000D0938B00A2
:1002C000C0938A0004C084B5806884BDC7BDDF9137
:1002D000CF911F91089584B5806284BDC8BDF7CFCA
:1002E00080918000806880938000D0938900C093C3
:1002F0008800EDCF8091B00080688093B000C093FB
:10030000B300E5CF8091B00080628093B000C093CD
:10031000B400DDCF3FB7F8948091050190910601BC
:10032000A0910701B091080126B5A89B05C02F3FF9
:1003300019F00196A11DB11D3FBFBA2FA92F982F0B
:100340008827BC01CD01620F711D811D911D42E006
:10035000660F771F881F991F4A95D1F708958F92CE
:100360009F92AF92BF92CF92DF92EF92FF920E9444
:100370008A014B015C0188E8C82E83E1D82EE12C6C
:10038000F12C0E948A01681979098A099B09683E43
:10039000734081059105A8F321E0C21AD108E10854
:1003A000F10888EE880E83E0981EA11CB11CC114D0
:1003B000D104E104F10429F7FF90EF90DF90CF9092
:1003C000BF90AF909F908F9008951F920F920FB69D
:1003D0000F9211242F933F938F939F93AF93BF93CB
:1003E0008091010190910201A0910301B09104015B
:1003F0003091000123E0230F2D3758F50196A11D00
:10040000B11D209300018093010190930201A093FC
:100410000301B09304018091050190910601A09120
:100420000701B09108010196A11DB11D809305013E
:1004300090930601A0930701B0930801BF91AF917B
:100440009F918F913F912F910F900FBE0F901F9012
:10045000189526E8230F0296A11DB11DD2CF7894DE
:1004600084B5826084BD84B5816084BD85B58260B9
:1004700085BD85B5816085BD80916E00816080936A
:100480006E001092810080918100826080938100D3
:1004900080918100816080938100809180008160E3
:1004A000809380008091B10084608093B10080913E
:1004B000B00081608093B00080917A008460809366
:1004C0007A0080917A00826080937A0080917A002D
:1004D000816080937A0080917A00806880937A00AE
:1004E0001092C100C0E0D0E00E94E7006FEF70E022
:1004F000809109010E942E0161E080910A010E9411
:100500009B000E94AF010E94E7006FEF70E08091B6
:100510000B010E942E0161E080910C010E949B0062
:100520000E94AF010E94E70080910F01909110019D
:10053000039711F00E94E7000E94AF010E94E700BC
:1005400064E670E0809109010E942E0161E08091D3
:100550000A010E949B000E94AF010E94E70061E037
:10056000809109010E949B0061E080910A010E9434
:100570009B000E94AF010E94E70064E670E080915A
:100580000B010E942E0161E080910C010E949B00F2
:100590000E94AF010E94E7000E94AF0180910F010D
:1005A00090911001039711F00E94E7000E94AF01A3
:1005B000209709F499CF0E94000096CFCF93DF9344
:1005C000C9E0D1E08BE0888389E089838AE08A836F
:1005D00088E08B8381E090E09D838C838BE00E9498
:1005E0007C008A810E947C0089810E947C008B8132
:1005F000DF91CF910C947C00EE0FFF1F0590F491DA
:08060000E02D0994F894FFCFEE
:00000001FF
